{
  "abi": [
    {
      "type": "constructor",
      "inputs": [],
      "stateMutability": "nonpayable"
    },
    {
      "type": "function",
      "name": "FIRST_TIME_REWARD",
      "inputs": [],
      "outputs": [
        {
          "name": "",
          "type": "uint256",
          "internalType": "uint256"
        }
      ],
      "stateMutability": "view"
    },
    {
      "type": "function",
      "name": "REPEAT_REWARD",
      "inputs": [],
      "outputs": [
        {
          "name": "",
          "type": "uint256",
          "internalType": "uint256"
        }
      ],
      "stateMutability": "view"
    },
    {
      "type": "function",
      "name": "adjustUserBalance",
      "inputs": [
        {
          "name": "user",
          "type": "address",
          "internalType": "address"
        },
        {
          "name": "amount",
          "type": "uint256",
          "internalType": "uint256"
        },
        {
          "name": "isAdd",
          "type": "bool",
          "internalType": "bool"
        }
      ],
      "outputs": [],
      "stateMutability": "nonpayable"
    },
    {
      "type": "function",
      "name": "allowance",
      "inputs": [
        {
          "name": "owner",
          "type": "address",
          "internalType": "address"
        },
        {
          "name": "spender",
          "type": "address",
          "internalType": "address"
        }
      ],
      "outputs": [
        {
          "name": "",
          "type": "uint256",
          "internalType": "uint256"
        }
      ],
      "stateMutability": "view"
    },
    {
      "type": "function",
      "name": "approve",
      "inputs": [
        {
          "name": "spender",
          "type": "address",
          "internalType": "address"
        },
        {
          "name": "value",
          "type": "uint256",
          "internalType": "uint256"
        }
      ],
      "outputs": [
        {
          "name": "",
          "type": "bool",
          "internalType": "bool"
        }
      ],
      "stateMutability": "nonpayable"
    },
    {
      "type": "function",
      "name": "balanceOf",
      "inputs": [
        {
          "name": "account",
          "type": "address",
          "internalType": "address"
        }
      ],
      "outputs": [
        {
          "name": "",
          "type": "uint256",
          "internalType": "uint256"
        }
      ],
      "stateMutability": "view"
    },
    {
      "type": "function",
      "name": "completeAction",
      "inputs": [
        {
          "name": "actionId",
          "type": "string",
          "internalType": "string"
        }
      ],
      "outputs": [],
      "stateMutability": "nonpayable"
    },
    {
      "type": "function",
      "name": "completionCount",
      "inputs": [
        {
          "name": "",
          "type": "address",
          "internalType": "address"
        },
        {
          "name": "",
          "type": "string",
          "internalType": "string"
        }
      ],
      "outputs": [
        {
          "name": "",
          "type": "uint256",
          "internalType": "uint256"
        }
      ],
      "stateMutability": "view"
    },
    {
      "type": "function",
      "name": "decimals",
      "inputs": [],
      "outputs": [
        {
          "name": "",
          "type": "uint8",
          "internalType": "uint8"
        }
      ],
      "stateMutability": "pure"
    },
    {
      "type": "function",
      "name": "getCompletionCount",
      "inputs": [
        {
          "name": "user",
          "type": "address",
          "internalType": "address"
        },
        {
          "name": "actionId",
          "type": "string",
          "internalType": "string"
        }
      ],
      "outputs": [
        {
          "name": "",
          "type": "uint256",
          "internalType": "uint256"
        }
      ],
      "stateMutability": "view"
    },
    {
      "type": "function",
      "name": "getTotalActionsCompleted",
      "inputs": [
        {
          "name": "user",
          "type": "address",
          "internalType": "address"
        }
      ],
      "outputs": [
        {
          "name": "",
          "type": "uint256",
          "internalType": "uint256"
        }
      ],
      "stateMutability": "view"
    },
    {
      "type": "function",
      "name": "hasCompletedBefore",
      "inputs": [
        {
          "name": "",
          "type": "address",
          "internalType": "address"
        },
        {
          "name": "",
          "type": "string",
          "internalType": "string"
        }
      ],
      "outputs": [
        {
          "name": "",
          "type": "bool",
          "internalType": "bool"
        }
      ],
      "stateMutability": "view"
    },
    {
      "type": "function",
      "name": "hasUserCompletedAction",
      "inputs": [
        {
          "name": "user",
          "type": "address",
          "internalType": "address"
        },
        {
          "name": "actionId",
          "type": "string",
          "internalType": "string"
        }
      ],
      "outputs": [
        {
          "name": "",
          "type": "bool",
          "internalType": "bool"
        }
      ],
      "stateMutability": "view"
    },
    {
      "type": "function",
      "name": "name",
      "inputs": [],
      "outputs": [
        {
          "name": "",
          "type": "string",
          "internalType": "string"
        }
      ],
      "stateMutability": "view"
    },
    {
      "type": "function",
      "name": "owner",
      "inputs": [],
      "outputs": [
        {
          "name": "",
          "type": "address",
          "internalType": "address"
        }
      ],
      "stateMutability": "view"
    },
    {
      "type": "function",
      "name": "renounceOwnership",
      "inputs": [],
      "outputs": [],
      "stateMutability": "nonpayable"
    },
    {
      "type": "function",
      "name": "symbol",
      "inputs": [],
      "outputs": [
        {
          "name": "",
          "type": "string",
          "internalType": "string"
        }
      ],
      "stateMutability": "view"
    },
    {
      "type": "function",
      "name": "totalActionsCompleted",
      "inputs": [
        {
          "name": "",
          "type": "address",
          "internalType": "address"
        }
      ],
      "outputs": [
        {
          "name": "",
          "type": "uint256",
          "internalType": "uint256"
        }
      ],
      "stateMutability": "view"
    },
    {
      "type": "function",
      "name": "totalSupply",
      "inputs": [],
      "outputs": [
        {
          "name": "",
          "type": "uint256",
          "internalType": "uint256"
        }
      ],
      "stateMutability": "view"
    },
    {
      "type": "function",
      "name": "transfer",
      "inputs": [
        {
          "name": "to",
          "type": "address",
          "internalType": "address"
        },
        {
          "name": "value",
          "type": "uint256",
          "internalType": "uint256"
        }
      ],
      "outputs": [
        {
          "name": "",
          "type": "bool",
          "internalType": "bool"
        }
      ],
      "stateMutability": "nonpayable"
    },
    {
      "type": "function",
      "name": "transferFrom",
      "inputs": [
        {
          "name": "from",
          "type": "address",
          "internalType": "address"
        },
        {
          "name": "to",
          "type": "address",
          "internalType": "address"
        },
        {
          "name": "value",
          "type": "uint256",
          "internalType": "uint256"
        }
      ],
      "outputs": [
        {
          "name": "",
          "type": "bool",
          "internalType": "bool"
        }
      ],
      "stateMutability": "nonpayable"
    },
    {
      "type": "function",
      "name": "transferOwnership",
      "inputs": [
        {
          "name": "newOwner",
          "type": "address",
          "internalType": "address"
        }
      ],
      "outputs": [],
      "stateMutability": "nonpayable"
    },
    {
      "type": "function",
      "name": "uncompleteAction",
      "inputs": [
        {
          "name": "actionId",
          "type": "string",
          "internalType": "string"
        }
      ],
      "outputs": [],
      "stateMutability": "nonpayable"
    },
    {
      "type": "event",
      "name": "ActionCompleted",
      "inputs": [
        {
          "name": "user",
          "type": "address",
          "indexed": true,
          "internalType": "address"
        },
        {
          "name": "actionId",
          "type": "string",
          "indexed": false,
          "internalType": "string"
        },
        {
          "name": "isFirstTime",
          "type": "bool",
          "indexed": false,
          "internalType": "bool"
        },
        {
          "name": "rewardAmount",
          "type": "uint256",
          "indexed": false,
          "internalType": "uint256"
        }
      ],
      "anonymous": false
    },
    {
      "type": "event",
      "name": "ActionUncompleted",
      "inputs": [
        {
          "name": "user",
          "type": "address",
          "indexed": true,
          "internalType": "address"
        },
        {
          "name": "actionId",
          "type": "string",
          "indexed": false,
          "internalType": "string"
        },
        {
          "name": "penaltyAmount",
          "type": "uint256",
          "indexed": false,
          "internalType": "uint256"
        }
      ],
      "anonymous": false
    },
    {
      "type": "event",
      "name": "Approval",
      "inputs": [
        {
          "name": "owner",
          "type": "address",
          "indexed": true,
          "internalType": "address"
        },
        {
          "name": "spender",
          "type": "address",
          "indexed": true,
          "internalType": "address"
        },
        {
          "name": "value",
          "type": "uint256",
          "indexed": false,
          "internalType": "uint256"
        }
      ],
      "anonymous": false
    },
    {
      "type": "event",
      "name": "OwnershipTransferred",
      "inputs": [
        {
          "name": "previousOwner",
          "type": "address",
          "indexed": true,
          "internalType": "address"
        },
        {
          "name": "newOwner",
          "type": "address",
          "indexed": true,
          "internalType": "address"
        }
      ],
      "anonymous": false
    },
    {
      "type": "event",
      "name": "Transfer",
      "inputs": [
        {
          "name": "from",
          "type": "address",
          "indexed": true,
          "internalType": "address"
        },
        {
          "name": "to",
          "type": "address",
          "indexed": true,
          "internalType": "address"
        },
        {
          "name": "value",
          "type": "uint256",
          "indexed": false,
          "internalType": "uint256"
        }
      ],
      "anonymous": false
    },
    {
      "type": "error",
      "name": "ERC20InsufficientAllowance",
      "inputs": [
        {
          "name": "spender",
          "type": "address",
          "internalType": "address"
        },
        {
          "name": "allowance",
          "type": "uint256",
          "internalType": "uint256"
        },
        {
          "name": "needed",
          "type": "uint256",
          "internalType": "uint256"
        }
      ]
    },
    {
      "type": "error",
      "name": "ERC20InsufficientBalance",
      "inputs": [
        {
          "name": "sender",
          "type": "address",
          "internalType": "address"
        },
        {
          "name": "balance",
          "type": "uint256",
          "internalType": "uint256"
        },
        {
          "name": "needed",
          "type": "uint256",
          "internalType": "uint256"
        }
      ]
    },
    {
      "type": "error",
      "name": "ERC20InvalidApprover",
      "inputs": [
        {
          "name": "approver",
          "type": "address",
          "internalType": "address"
        }
      ]
    },
    {
      "type": "error",
      "name": "ERC20InvalidReceiver",
      "inputs": [
        {
          "name": "receiver",
          "type": "address",
          "internalType": "address"
        }
      ]
    },
    {
      "type": "error",
      "name": "ERC20InvalidSender",
      "inputs": [
        {
          "name": "sender",
          "type": "address",
          "internalType": "address"
        }
      ]
    },
    {
      "type": "error",
      "name": "ERC20InvalidSpender",
      "inputs": [
        {
          "name": "spender",
          "type": "address",
          "internalType": "address"
        }
      ]
    },
    {
      "type": "error",
      "name": "OwnableInvalidOwner",
      "inputs": [
        {
          "name": "owner",
          "type": "address",
          "internalType": "address"
        }
      ]
    },
    {
      "type": "error",
      "name": "OwnableUnauthorizedAccount",
      "inputs": [
        {
          "name": "account",
          "type": "address",
          "internalType": "address"
        }
      ]
    },
    {
      "type": "error",
      "name": "ReentrancyGuardReentrantCall",
      "inputs": []
    }
  ],
  "bytecode": {
    "object": "0x608060405234801561000f575f5ffd5b50336040518060400160405280601081526020017f50737963686f6c6f677920436f696e73000000000000000000000000000000008152506040518060400160405280600481526020017f5053594300000000000000000000000000000000000000000000000000000000815250816003908161008c919061042c565b50806004908161009c919061042c565b5050505f73ffffffffffffffffffffffffffffffffffffffff168173ffffffffffffffffffffffffffffffffffffffff160361010f575f6040517f1e4fbdf7000000000000000000000000000000000000000000000000000000008152600401610106919061053a565b60405180910390fd5b61011e8161012c60201b60201c565b506001600681905550610553565b5f60055f9054906101000a900473ffffffffffffffffffffffffffffffffffffffff1690508160055f6101000a81548173ffffffffffffffffffffffffffffffffffffffff021916908373ffffffffffffffffffffffffffffffffffffffff1602179055508173ffffffffffffffffffffffffffffffffffffffff168173ffffffffffffffffffffffffffffffffffffffff167f8be0079c531659141344cd1fd0a4f28419497f9722a3daafe3b4186f6b6457e060405160405180910390a35050565b5f81519050919050565b7f4e487b71000000000000000000000000000000000000000000000000000000005f52604160045260245ffd5b7f4e487b71000000000000000000000000000000000000000000000000000000005f52602260045260245ffd5b5f600282049050600182168061026a57607f821691505b60208210810361027d5761027c610226565b5b50919050565b5f819050815f5260205f209050919050565b5f6020601f8301049050919050565b5f82821b905092915050565b5f600883026102df7fffffffffffffffffffffffffffffffffffffffffffffffffffffffffffffffff826102a4565b6102e986836102a4565b95508019841693508086168417925050509392505050565b5f819050919050565b5f819050919050565b5f61032d61032861032384610301565b61030a565b610301565b9050919050565b5f819050919050565b61034683610313565b61035a61035282610334565b8484546102b0565b825550505050565b5f5f905090565b610371610362565b61037c81848461033d565b505050565b5b8181101561039f576103945f82610369565b600181019050610382565b5050565b601f8211156103e4576103b581610283565b6103be84610295565b810160208510156103cd578190505b6103e16103d985610295565b830182610381565b50505b505050565b5f82821c905092915050565b5f6104045f19846008026103e9565b1980831691505092915050565b5f61041c83836103f5565b9150826002028217905092915050565b610435826101ef565b67ffffffffffffffff81111561044e5761044d6101f9565b5b6104588254610253565b6104638282856103a3565b5f60209050601f831160018114610494575f8415610482578287015190505b61048c8582610411565b8655506104f3565b601f1984166104a286610283565b5f5b828110156104c9578489015182556001820191506020850194506020810190506104a4565b868310156104e657848901516104e2601f8916826103f5565b8355505b6001600288020188555050505b505050505050565b5f73ffffffffffffffffffffffffffffffffffffffff82169050919050565b5f610524826104fb565b9050919050565b6105348161051a565b82525050565b5f60208201905061054d5f83018461052b565b92915050565b61207c806105605f395ff3fe608060405234801561000f575f5ffd5b506004361061014b575f3560e01c806370a08231116100c157806394981d351161007a57806394981d35146103c557806395d89b41146103e157806397e1b3fb146103ff578063a9059cbb1461042f578063dd62ed3e1461045f578063f2fde38b1461048f5761014b565b806370a08231146102dd578063711d52671461030d578063715018a61461033d57806389f38a6c146103475780638d998911146103775780638da5cb5b146103a75761014b565b8063313ce56711610113578063313ce5671461021b57806345ae3c9e14610239578063576b60cd14610269578063616f181a146102855780636ac408b2146102a35780636d4a9445146102c15761014b565b806306fdde031461014f578063095ea7b31461016d57806318160ddd1461019d5780631e773c4f146101bb57806323b872dd146101eb575b5f5ffd5b6101576104ab565b6040516101649190611841565b60405180910390f35b610187600480360381019061018291906118ff565b61053b565b6040516101949190611957565b60405180910390f35b6101a561055d565b6040516101b2919061197f565b60405180910390f35b6101d560048036038101906101d09190611ac4565b610566565b6040516101e29190611957565b60405180910390f35b61020560048036038101906102009190611b1e565b6105d5565b6040516102129190611957565b60405180910390f35b610223610603565b6040516102309190611b89565b60405180910390f35b610253600480360381019061024e9190611ac4565b61060b565b6040516102609190611957565b60405180910390f35b610283600480360381019061027e9190611bcc565b61064d565b005b61028d6106c5565b60405161029a919061197f565b60405180910390f35b6102ab6106d1565b6040516102b8919061197f565b60405180910390f35b6102db60048036038101906102d69190611c1c565b6106dd565b005b6102f760048036038101906102f29190611c63565b610a53565b604051610304919061197f565b60405180910390f35b61032760048036038101906103229190611c63565b610a98565b604051610334919061197f565b60405180910390f35b610345610ade565b005b610361600480360381019061035c9190611ac4565b610af1565b60405161036e919061197f565b60405180910390f35b610391600480360381019061038c9190611c63565b610b54565b60405161039e919061197f565b60405180910390f35b6103af610b69565b6040516103bc9190611c9d565b60405180910390f35b6103df60048036038101906103da9190611c1c565b610b91565b005b6103e9610dc5565b6040516103f69190611841565b60405180910390f35b61041960048036038101906104149190611ac4565b610e55565b604051610426919061197f565b60405180910390f35b610449600480360381019061044491906118ff565b610e8d565b6040516104569190611957565b60405180910390f35b61047960048036038101906104749190611cb6565b610eaf565b604051610486919061197f565b60405180910390f35b6104a960048036038101906104a49190611c63565b610f31565b005b6060600380546104ba90611d21565b80601f01602080910402602001604051908101604052809291908181526020018280546104e690611d21565b80156105315780601f1061050857610100808354040283529160200191610531565b820191905f5260205f20905b81548152906001019060200180831161051457829003601f168201915b5050505050905090565b5f5f610545610fb5565b9050610552818585610fbc565b600191505092915050565b5f600254905090565b5f60075f8473ffffffffffffffffffffffffffffffffffffffff1673ffffffffffffffffffffffffffffffffffffffff1681526020019081526020015f20826040516105b29190611d8b565b90815260200160405180910390205f9054906101000a900460ff16905092915050565b5f5f6105df610fb5565b90506105ec858285610fce565b6105f7858585611061565b60019150509392505050565b5f6012905090565b6007602052815f5260405f20818051602081018201805184825260208301602085012081835280955050505050505f915091509054906101000a900460ff1681565b610655611151565b801561066a5761066583836111d8565b6106c0565b8161067484610a53565b10156106b5576040517f08c379a00000000000000000000000000000000000000000000000000000000081526004016106ac90611deb565b60405180910390fd5b6106bf8383611257565b5b505050565b674563918244f4000081565b670de0b6b3a764000081565b6106e56112d6565b5f3390505f60085f8373ffffffffffffffffffffffffffffffffffffffff1673ffffffffffffffffffffffffffffffffffffffff1681526020019081526020015f20836040516107359190611d8b565b90815260200160405180910390205411610784576040517f08c379a000000000000000000000000000000000000000000000000000000000815260040161077b90611e53565b60405180910390fd5b5f600160085f8473ffffffffffffffffffffffffffffffffffffffff1673ffffffffffffffffffffffffffffffffffffffff1681526020019081526020015f20846040516107d29190611d8b565b908152602001604051809103902054148015610850575060075f8373ffffffffffffffffffffffffffffffffffffffff1673ffffffffffffffffffffffffffffffffffffffff1681526020019081526020015f20836040516108349190611d8b565b90815260200160405180910390205f9054906101000a900460ff165b1561092757674563918244f4000090505f60075f8473ffffffffffffffffffffffffffffffffffffffff1673ffffffffffffffffffffffffffffffffffffffff1681526020019081526020015f20846040516108ac9190611d8b565b90815260200160405180910390205f6101000a81548160ff02191690831515021790555060095f8373ffffffffffffffffffffffffffffffffffffffff1673ffffffffffffffffffffffffffffffffffffffff1681526020019081526020015f205f81548092919061091d90611e9e565b9190505550610933565b670de0b6b3a764000090505b60085f8373ffffffffffffffffffffffffffffffffffffffff1673ffffffffffffffffffffffffffffffffffffffff1681526020019081526020015f208360405161097e9190611d8b565b90815260200160405180910390205f81548092919061099c90611e9e565b9190505550806109ab83610a53565b10156109ec576040517f08c379a00000000000000000000000000000000000000000000000000000000081526004016109e390611f0f565b60405180910390fd5b6109f68282611257565b8173ffffffffffffffffffffffffffffffffffffffff167f372c24b39994966111d1feda0de70d443b35ed7de4f1059b1bf43422703365848483604051610a3e929190611f2d565b60405180910390a25050610a5061131c565b50565b5f5f5f8373ffffffffffffffffffffffffffffffffffffffff1673ffffffffffffffffffffffffffffffffffffffff1681526020019081526020015f20549050919050565b5f60095f8373ffffffffffffffffffffffffffffffffffffffff1673ffffffffffffffffffffffffffffffffffffffff1681526020019081526020015f20549050919050565b610ae6611151565b610aef5f611326565b565b5f60085f8473ffffffffffffffffffffffffffffffffffffffff1673ffffffffffffffffffffffffffffffffffffffff1681526020019081526020015f2082604051610b3d9190611d8b565b908152602001604051809103902054905092915050565b6009602052805f5260405f205f915090505481565b5f60055f9054906101000a900473ffffffffffffffffffffffffffffffffffffffff16905090565b610b996112d6565b5f3390505f60075f8373ffffffffffffffffffffffffffffffffffffffff1673ffffffffffffffffffffffffffffffffffffffff1681526020019081526020015f2083604051610be99190611d8b565b90815260200160405180910390205f9054906101000a900460ff161590505f8115610ce157674563918244f400009050600160075f8573ffffffffffffffffffffffffffffffffffffffff1673ffffffffffffffffffffffffffffffffffffffff1681526020019081526020015f2085604051610c669190611d8b565b90815260200160405180910390205f6101000a81548160ff02191690831515021790555060095f8473ffffffffffffffffffffffffffffffffffffffff1673ffffffffffffffffffffffffffffffffffffffff1681526020019081526020015f205f815480929190610cd790611f5b565b9190505550610ced565b670de0b6b3a764000090505b60085f8473ffffffffffffffffffffffffffffffffffffffff1673ffffffffffffffffffffffffffffffffffffffff1681526020019081526020015f2084604051610d389190611d8b565b90815260200160405180910390205f815480929190610d5690611f5b565b9190505550610d6583826111d8565b8273ffffffffffffffffffffffffffffffffffffffff167fd45794ee9678b752eb17139ebff4f7004065ad00d7a4a1917765111545516a6a858484604051610daf93929190611fa2565b60405180910390a2505050610dc261131c565b50565b606060048054610dd490611d21565b80601f0160208091040260200160405190810160405280929190818152602001828054610e0090611d21565b8015610e4b5780601f10610e2257610100808354040283529160200191610e4b565b820191905f5260205f20905b815481529060010190602001808311610e2e57829003601f168201915b5050505050905090565b6008602052815f5260405f20818051602081018201805184825260208301602085012081835280955050505050505f91509150505481565b5f5f610e97610fb5565b9050610ea4818585611061565b600191505092915050565b5f60015f8473ffffffffffffffffffffffffffffffffffffffff1673ffffffffffffffffffffffffffffffffffffffff1681526020019081526020015f205f8373ffffffffffffffffffffffffffffffffffffffff1673ffffffffffffffffffffffffffffffffffffffff1681526020019081526020015f2054905092915050565b610f39611151565b5f73ffffffffffffffffffffffffffffffffffffffff168173ffffffffffffffffffffffffffffffffffffffff1603610fa9575f6040517f1e4fbdf7000000000000000000000000000000000000000000000000000000008152600401610fa09190611c9d565b60405180910390fd5b610fb281611326565b50565b5f33905090565b610fc983838360016113e9565b505050565b5f610fd98484610eaf565b90507fffffffffffffffffffffffffffffffffffffffffffffffffffffffffffffffff81101561105b578181101561104c578281836040517ffb8f41b200000000000000000000000000000000000000000000000000000000815260040161104393929190611fde565b60405180910390fd5b61105a84848484035f6113e9565b5b50505050565b5f73ffffffffffffffffffffffffffffffffffffffff168373ffffffffffffffffffffffffffffffffffffffff16036110d1575f6040517f96c6fd1e0000000000000000000000000000000000000000000000000000000081526004016110c89190611c9d565b60405180910390fd5b5f73ffffffffffffffffffffffffffffffffffffffff168273ffffffffffffffffffffffffffffffffffffffff1603611141575f6040517fec442f050000000000000000000000000000000000000000000000000000000081526004016111389190611c9d565b60405180910390fd5b61114c8383836115b8565b505050565b611159610fb5565b73ffffffffffffffffffffffffffffffffffffffff16611177610b69565b73ffffffffffffffffffffffffffffffffffffffff16146111d65761119a610fb5565b6040517f118cdaa70000000000000000000000000000000000000000000000000000000081526004016111cd9190611c9d565b60405180910390fd5b565b5f73ffffffffffffffffffffffffffffffffffffffff168273ffffffffffffffffffffffffffffffffffffffff1603611248575f6040517fec442f0500000000000000000000000000000000000000000000000000000000815260040161123f9190611c9d565b60405180910390fd5b6112535f83836115b8565b5050565b5f73ffffffffffffffffffffffffffffffffffffffff168273ffffffffffffffffffffffffffffffffffffffff16036112c7575f6040517f96c6fd1e0000000000000000000000000000000000000000000000000000000081526004016112be9190611c9d565b60405180910390fd5b6112d2825f836115b8565b5050565b600260065403611312576040517f3ee5aeb500000000000000000000000000000000000000000000000000000000815260040160405180910390fd5b6002600681905550565b6001600681905550565b5f60055f9054906101000a900473ffffffffffffffffffffffffffffffffffffffff1690508160055f6101000a81548173ffffffffffffffffffffffffffffffffffffffff021916908373ffffffffffffffffffffffffffffffffffffffff1602179055508173ffffffffffffffffffffffffffffffffffffffff168173ffffffffffffffffffffffffffffffffffffffff167f8be0079c531659141344cd1fd0a4f28419497f9722a3daafe3b4186f6b6457e060405160405180910390a35050565b5f73ffffffffffffffffffffffffffffffffffffffff168473ffffffffffffffffffffffffffffffffffffffff1603611459575f6040517fe602df050000000000000000000000000000000000000000000000000000000081526004016114509190611c9d565b60405180910390fd5b5f73ffffffffffffffffffffffffffffffffffffffff168373ffffffffffffffffffffffffffffffffffffffff16036114c9575f6040517f94280d620000000000000000000000000000000000000000000000000000000081526004016114c09190611c9d565b60405180910390fd5b8160015f8673ffffffffffffffffffffffffffffffffffffffff1673ffffffffffffffffffffffffffffffffffffffff1681526020019081526020015f205f8573ffffffffffffffffffffffffffffffffffffffff1673ffffffffffffffffffffffffffffffffffffffff1681526020019081526020015f208190555080156115b2578273ffffffffffffffffffffffffffffffffffffffff168473ffffffffffffffffffffffffffffffffffffffff167f8c5be1e5ebec7d5bd14f71427d1e84f3dd0314c0f7b2291e5b200ac8c7c3b925846040516115a9919061197f565b60405180910390a35b50505050565b5f73ffffffffffffffffffffffffffffffffffffffff168373ffffffffffffffffffffffffffffffffffffffff1603611608578060025f8282546115fc9190612013565b925050819055506116d6565b5f5f5f8573ffffffffffffffffffffffffffffffffffffffff1673ffffffffffffffffffffffffffffffffffffffff1681526020019081526020015f2054905081811015611691578381836040517fe450d38c00000000000000000000000000000000000000000000000000000000815260040161168893929190611fde565b60405180910390fd5b8181035f5f8673ffffffffffffffffffffffffffffffffffffffff1673ffffffffffffffffffffffffffffffffffffffff1681526020019081526020015f2081905550505b5f73ffffffffffffffffffffffffffffffffffffffff168273ffffffffffffffffffffffffffffffffffffffff160361171d578060025f8282540392505081905550611767565b805f5f8473ffffffffffffffffffffffffffffffffffffffff1673ffffffffffffffffffffffffffffffffffffffff1681526020019081526020015f205f82825401925050819055505b8173ffffffffffffffffffffffffffffffffffffffff168373ffffffffffffffffffffffffffffffffffffffff167fddf252ad1be2c89b69c2b068fc378daa952ba7f163c4a11628f55a4df523b3ef836040516117c4919061197f565b60405180910390a3505050565b5f81519050919050565b5f82825260208201905092915050565b8281835e5f83830152505050565b5f601f19601f8301169050919050565b5f611813826117d1565b61181d81856117db565b935061182d8185602086016117eb565b611836816117f9565b840191505092915050565b5f6020820190508181035f8301526118598184611809565b905092915050565b5f604051905090565b5f5ffd5b5f5ffd5b5f73ffffffffffffffffffffffffffffffffffffffff82169050919050565b5f61189b82611872565b9050919050565b6118ab81611891565b81146118b5575f5ffd5b50565b5f813590506118c6816118a2565b92915050565b5f819050919050565b6118de816118cc565b81146118e8575f5ffd5b50565b5f813590506118f9816118d5565b92915050565b5f5f604083850312156119155761191461186a565b5b5f611922858286016118b8565b9250506020611933858286016118eb565b9150509250929050565b5f8115159050919050565b6119518161193d565b82525050565b5f60208201905061196a5f830184611948565b92915050565b611979816118cc565b82525050565b5f6020820190506119925f830184611970565b92915050565b5f5ffd5b5f5ffd5b7f4e487b71000000000000000000000000000000000000000000000000000000005f52604160045260245ffd5b6119d6826117f9565b810181811067ffffffffffffffff821117156119f5576119f46119a0565b5b80604052505050565b5f611a07611861565b9050611a1382826119cd565b919050565b5f67ffffffffffffffff821115611a3257611a316119a0565b5b611a3b826117f9565b9050602081019050919050565b828183375f83830152505050565b5f611a68611a6384611a18565b6119fe565b905082815260208101848484011115611a8457611a8361199c565b5b611a8f848285611a48565b509392505050565b5f82601f830112611aab57611aaa611998565b5b8135611abb848260208601611a56565b91505092915050565b5f5f60408385031215611ada57611ad961186a565b5b5f611ae7858286016118b8565b925050602083013567ffffffffffffffff811115611b0857611b0761186e565b5b611b1485828601611a97565b9150509250929050565b5f5f5f60608486031215611b3557611b3461186a565b5b5f611b42868287016118b8565b9350506020611b53868287016118b8565b9250506040611b64868287016118eb565b9150509250925092565b5f60ff82169050919050565b611b8381611b6e565b82525050565b5f602082019050611b9c5f830184611b7a565b92915050565b611bab8161193d565b8114611bb5575f5ffd5b50565b5f81359050611bc681611ba2565b92915050565b5f5f5f60608486031215611be357611be261186a565b5b5f611bf0868287016118b8565b9350506020611c01868287016118eb565b9250506040611c1286828701611bb8565b9150509250925092565b5f60208284031215611c3157611c3061186a565b5b5f82013567ffffffffffffffff811115611c4e57611c4d61186e565b5b611c5a84828501611a97565b91505092915050565b5f60208284031215611c7857611c7761186a565b5b5f611c85848285016118b8565b91505092915050565b611c9781611891565b82525050565b5f602082019050611cb05f830184611c8e565b92915050565b5f5f60408385031215611ccc57611ccb61186a565b5b5f611cd9858286016118b8565b9250506020611cea858286016118b8565b9150509250929050565b7f4e487b71000000000000000000000000000000000000000000000000000000005f52602260045260245ffd5b5f6002820490506001821680611d3857607f821691505b602082108103611d4b57611d4a611cf4565b5b50919050565b5f81905092915050565b5f611d65826117d1565b611d6f8185611d51565b9350611d7f8185602086016117eb565b80840191505092915050565b5f611d968284611d5b565b915081905092915050565b7f496e73756666696369656e742062616c616e63650000000000000000000000005f82015250565b5f611dd56014836117db565b9150611de082611da1565b602082019050919050565b5f6020820190508181035f830152611e0281611dc9565b9050919050565b7f416374696f6e206e6f7420636f6d706c657465642079657400000000000000005f82015250565b5f611e3d6018836117db565b9150611e4882611e09565b602082019050919050565b5f6020820190508181035f830152611e6a81611e31565b9050919050565b7f4e487b71000000000000000000000000000000000000000000000000000000005f52601160045260245ffd5b5f611ea8826118cc565b91505f8203611eba57611eb9611e71565b5b600182039050919050565b7f496e73756666696369656e742062616c616e636520666f722070656e616c74795f82015250565b5f611ef96020836117db565b9150611f0482611ec5565b602082019050919050565b5f6020820190508181035f830152611f2681611eed565b9050919050565b5f6040820190508181035f830152611f458185611809565b9050611f546020830184611970565b9392505050565b5f611f65826118cc565b91507fffffffffffffffffffffffffffffffffffffffffffffffffffffffffffffffff8203611f9757611f96611e71565b5b600182019050919050565b5f6060820190508181035f830152611fba8186611809565b9050611fc96020830185611948565b611fd66040830184611970565b949350505050565b5f606082019050611ff15f830186611c8e565b611ffe6020830185611970565b61200b6040830184611970565b949350505050565b5f61201d826118cc565b9150612028836118cc565b92508282019050808211156120405761203f611e71565b5b9291505056fea264697066735822122034576e6f5826d6433ed2a100492a385939d9dcc6bfef748083be23e4e8d933c564736f6c634300081e0033",
    "linkReferences": {}
  },
  "methodIdentifiers": {
    "FIRST_TIME_REWARD()": "616f181a",
    "REPEAT_REWARD()": "6ac408b2",
    "adjustUserBalance(address,uint256,bool)": "576b60cd",
    "allowance(address,address)": "dd62ed3e",
    "approve(address,uint256)": "095ea7b3",
    "balanceOf(address)": "70a08231",
    "completeAction(string)": "94981d35",
    "completionCount(address,string)": "97e1b3fb",
    "decimals()": "313ce567",
    "getCompletionCount(address,string)": "89f38a6c",
    "getTotalActionsCompleted(address)": "711d5267",
    "hasCompletedBefore(address,string)": "45ae3c9e",
    "hasUserCompletedAction(address,string)": "1e773c4f",
    "name()": "06fdde03",
    "owner()": "8da5cb5b",
    "renounceOwnership()": "715018a6",
    "symbol()": "95d89b41",
    "totalActionsCompleted(address)": "8d998911",
    "totalSupply()": "18160ddd",
    "transfer(address,uint256)": "a9059cbb",
    "transferFrom(address,address,uint256)": "23b872dd",
    "transferOwnership(address)": "f2fde38b",
    "uncompleteAction(string)": "6d4a9445"
  },
  "id": 0
}